:100000000C9406050C944D050C944D050C944D056F
:100010000C944D050C944D050C944D050C944D0518
:100020000C944D050C944D050C94AF2E0C94812F1F
:100030000C944D050C944D050C944D050C944D05F8
:100040000C944D050C941A150C944D050C944D050B
:100050000C943E150C9451280C944D050C944D05B0
:100060000C944D050C944D050C944D050C944D05C8
:100070000C944D050C944D050C944D050C944D05B8
:100080000C94492A0C944D050C944D050C944D0587
:100090000C944D050C944D050C944D050C944D0598
:1000A0000C944D050C944D050C944D052609210921
:1000B0001F092809260921091F09BE13C113C613E8
:1000C000CB13D013D513DA13DF13E413E913EE13B4
:1000D000F51303140314F913031403140314FC138A
:1000E0000314A01CA01CD21CD21C221DCD1E681EF5
:1000F000CD1E441DDF1DF11DF11D5F1ECD1ECD1E49
:10010000C71E741E951E7C1E7F1E881E841E8D1E9B
:10011000941F941FA61FA61F9D1FA61FA61FA61FE4
:10012000941F941FA21FA61FA61FA21FEE2F1530FB
:100130000D3115300D31613084300D31DB30EA3056
:100140003132333435363738393021402324255E77
:10015000262A282971776572747975696F705157ED
:100160004552545955494F506173646667686A6BCC
:100170006C4153444647484A4B4C3A3B7A78637645
:10018000626E6D5A584356424E4D2F5C7C2E2C7E2B
:100190002B2D272022605F5B5D3C3E7B7D7C3F00FA
:1001A00001E00152025202E001280228000155023A
:1001B0005501540254000154025401550255002DBA
:1001C0005D29001E001F0020002100220015502381
:1001D00000240025002600270029002D5D0451E39E
:1001E0000014001A0008001500170000001C001879
:1001F000000C0012001300E70004510351E2000458
:10020000001600070009000A0000000B000D000E98
:10021000000F003302E60003510251E1001D001BF4
:1002200000060019000500000011001000380052FF
:10023000003700E5000251F15BE000175C35007605
:10024000002B002C0028002C002A00500051004FE9
:1002500000E400F15B00000000000000000000006E
:10026000000000000000000000000000000000008E
:10027000000000000000000000000000000000007E
:10028000000000000000000000000000000000006E
:10029000000000000000000000000000000000005E
:1002A000000000000000000000000000000000004E
:1002B000000000000000000000000000000000003E
:1002C000000000000000000000000000000000002E
:1002D000000000000000000000000000000000001E
:1002E00000000000000000000000000100010035D7
:1002F000020000340034022E0201002D0035002DD2
:10030000022D022E0001000100010001000000008A
:1003100000000031002F0001003000380000000014
:1003200000000001000100010001000000000000C9
:100330000036022602010027023702000000001EDC
:1003400002010001000100010000000000000000A7
:10035000302F0201003002013031024B003802011F
:100360000001000100E2010100010001002B020177
:1003700000010001004C004A004E004D00E2010166
:10038000000100010000000000000000000000016A
:100390000000000000000000002D0001000100012D
:1003A00000010000000000221400003100010038AC
:1003B000000000000000002E020100010001000109
:1003C000000000210233160000360201003702004F
:1003D00000000021162502010001000100010000BB
:1003E00000000000000000003001000130000000AB
:1003F0000000003800010001000100E101010001DE
:100400000001002B040100010001000100010001B6
:10041000000100E10101000100A8003A003B003C9E
:10042000003D003E00005C3F0040004100420043B0
:1004300000A80001000100000044004500680069B8
:10044000006A0000006B006C006D006E006F000021
:10045000000100010000000000000000000000009A
:10046000000000000000000000000000000000018B
:10047000000100000046004800B20000000000003B
:1004800000BD5CBC5CBE5CC65CBF5C0000010001E2
:10049000000000000000000000000000000000005C
:1004A000000000C85CC75CC95C0000010010502956
:1004B000001E001F002000210022001050230024F5
:1004C00000250026002700290010500851E30000F5
:1004D000001A000000000000000000000000000002
:1004E0000000000000E70008510351E2000400167C
:1004F00000070000000000000000000000000000F5
:10050000000000E60007510251E100000000000079
:1005100000000000000000000000000000000000DB
:1005200000E5000651F15BE000175CF65B76002BFE
:10053000002C0028002C002A00000000000000E42D
:1005400000F15B0100010001000100010001000158
:100550000001000100010001000100010001000193
:100560000001000100010001000100010001000183
:100570000001000100010001000100010001000173
:100580000001000100010001000100010001000163
:100590000001000100010001000100010001000153
:1005A0000001000100010001000100010001000143
:1005B0000001000100010001000100010001000133
:1005C0000001000100010001000100010001000123
:1005D0000001000100010001000100010001000113
:1005E0000001000100010001000100010001000103
:1005F00000010001000100010001000100010001F3
:1006000000010001000100010001000100010001E2
:1006100000010001000100010001000100010001D2
:1006200000010001000100010001000100010001C2
:1006300000010001000100010001000100010001B2
:1006400000010001000100010001000100010001A2
:100650000001000100010001000100010001000192
:100660000001000100010001000100010001000182
:100670000001000100010001000100010001000172
:100680000001000100010001000100010001000162
:100690000001000100010001000100010001000152
:1006A0000001000100010001000100010001000142
:1006B0000001000100010001000100010001000132
:1006C0000001000100010001000100010001000122
:1006D0000001000100010001000100010001000112
:1006E0000001000100010001000100010001000102
:1006F00000010001000100010001000100010001F2
:10070000000100010000000000000000002A2B286A
:1007100000000000000000000000000000000000D9
:1007200029000000002C1E342021222434262725F5
:100730002E362D3738271E1F20212223242526332D
:1007400033362E37381F0405060708090A0B0C0D2F
:100750000E0F101112131415161718191A1B1C1D41
:100760002F3130232D350405060708090A0B0C0D1F
:100770000E0F101112131415161718191A1B1C1D21
:100780002F3130354C000000000000000000000058
:100790000000000000000000007E0F00D4FFFFFFFB
:1007A000C700000078643214FFAA7F5540000101A1
:1007B0000101010101010102020202020202020220
:1007C00003030303030303030404040404040405F0
:1007D00005050505060606060607070707070808B4
:1007E0000808090909090A0A0A0B0B0B0C0C0C0D65
:1007F0000D0D0E0E0E0F0F0F1010111111121213FE
:10080000131414151516161717181819191A1A1B78
:100810001B1C1D1D1E1E1F202021222223242425D7
:100820002626272829292A2B2C2D2D2E2F30313210
:1008300032333435363738393A3B3C3D3E3F404120
:1008400042434445464748494A4C4D4E4F50515308
:1008500054555658595A5B5D5E5F616264656668BF
:10086000696B6C6D6F7072737577787A7B7D7E8043
:1008700082838587888A8C8E8F91939596989A9C8F
:100880009EA0A2A3A5A7A9ABADAFB1B3B5B7BABCA3
:10089000BEC0C2C4C6C9CBCDCFD1D4D6D8DBDDDF74
:1008A000E2E4E7E9EBEEF0F3F5F8FAFDFF00000013
:1008B0000000000000000000010204060A0F1720DB
:1008C0002C3A4A5D71879DB3C7DAE9F5FCFFFCF568
:1008D000E9DAC7B39D87715D4A3A2C20170F0A06E3
:1008E00004020100000000000000000000040330CA
:1008F0000000000A03580044003700350000000CD7
:1009000003780069007500640069000000040309B1
:100910000409023B00020100A0FA090400000103DF
:100920000101000921110100012240000705810396
:1009300008000A0904010001030000000921110157
:100940000001226D000705820320000A1201100138
:1009500000000008447875750100010203010501DB
:100960000980A101850319012AB700150126B700E6
:10097000950175108100C0050C0901A101850419BC
:10098000012AA002150126A002950175108100C060
:1009900005010906A1018505050719E029E71500EC
:1009A00025019508750181020507190029EF150039
:1009B000250195F0750181020508190129059505A4
:1009C00075019102950175039101C005010906A108
:1009D00001050719E029E715002501950875018132
:1009E000029501750881010507190029FF150026E8
:1009F000FF00950675088100050819012905950570
:100A000075019102950175039101C00011241FBE6B
:100A1000CFEFDAE0DEBFCDBF04B603FE27C0809182
:100A2000830390918403A0918503B091860387305E
:100A3000904BA740B04BD1F41092830310928403E3
:100A4000109285031092860314BE84B7877F84BFFB
:100A50000FB6F894A895809160008861809360003B
:100A6000109260000FBEE0E0F8E3099512E0A0E00C
:100A7000B1E0E4E2F4E602C005900D92AE33B107B6
:100A8000D9F723E0AEE3B2E001C01D92A338B2076C
:100A9000E1F70E94EB2B0C9410320C9400000C94A4
:100AA000B6050C94990A0C94B70A2A9A0895229ACA
:100AB0000C9455058F9A0895879A0C945A058C9832
:100AC0000895849A0C945F058D9A0895859A0C94E4
:100AD00064050E9457050E945C050E9461050E9402
:100AE00066050C94B305CF93DF9300D000D01F921E
:100AF000CDB7DEB76B837C838D838C819D81892B01
:100B000031F05F3F31F481E04F3F19F403C081E0E1
:100B100001C080E080FD02C08B8102C080E090E0D7
:100B200081700F900F900F900F900F90DF91CF91E9
:100B30000895CF93DF93662391F0EC010E94E50ABC
:100B4000CE010E94FB0A8CE290E00E94E50A8CE252
:100B500090E00E94FB0A0E94D62580E001C081E05F
:100B6000DF91CF91089584E00C94471680915F0245
:100B7000882309F499C280915D0290915E020E94DF
:100B80004228893E934008F48FC210925F020E946F
:100B90000D1980915302909154020F9721F5809185
:100BA000550290915602892BF1F480915702909151
:100BB0005802892BC1F48091590290915A02892BD5
:100BC00091F480915B0290915C02892B61F487EE35
:100BD0000E943F1B8FE00E943F1B8FE00E94E11BA1
:100BE00087EE0E94E11B8091530290915402089776
:100BF00021F580915502909156020A97F1F4809167
:100C0000570290915802892BC1F48091590290911A
:100C10005A02892B91F480915B0290915C02892B9E
:100C200061F485E30E943F1B85E30E94E11B88E09D
:100C30000E943F1B88E00E94E11B8091530290912B
:100C40005402089721F5809155029091560204971D
:100C5000F1F48091570290915802892BC1F4809150
:100C6000590290915A02892B91F480915B029091E4
:100C70005C02892B61F486EE0E943F1B88E00E9493
:100C80003F1B88E00E94E11B86EE0E94E11B8091E1
:100C9000530290915402049721F58091550290914E
:100CA00056020A97F1F48091570290915802892BCD
:100CB000C1F48091590290915A02892B91F480914C
:100CC0005B0290915C02892B61F485E30E943F1BDB
:100CD00085E30E94E11B84E00E943F1B84E00E94A8
:100CE000E11B8091530290915402049721F5809169
:100CF0005502909156020497F1F480915702909119
:100D00005802892BC1F48091590290915A02892B83
:100D100091F480915B0290915C02892B61F484E3F1
:100D20000E943F1B84E30E94E11B84E00E943F1B62
:100D300084E00E94E11B8091530290915402049739
:100D400051F58091550290915602069721F58091B8
:100D5000570290915802892BF1F480915902909199
:100D60005A02892BC1F480915B0290915C02892B1D
:100D700091F485EE0E943F1B83E20E943F1B83E2B9
:100D80000E94E11B85EE0E94E11B84E00E943F1B54
:100D900084E00E94E11B80915302909154020897D5
:100DA00051F58091550290915602069721F5809158
:100DB000570290915802892BF1F480915902909139
:100DC0005A02892BC1F480915B0290915C02892BBD
:100DD00091F485EE0E943F1B83E20E943F1B83E259
:100DE0000E94E11B85EE0E94E11B88E00E943F1BF0
:100DF00088E00E94E11B8091530290915402089771
:100E000081F58091550290915602479751F5809156
:100E1000570290915802892B21F5809159029091A7
:100E20005A02892BF1F480915B0290915C02892B2C
:100E3000C1F486EE0E943F1B85EE0E943F1B84E3B7
:100E40000E943F1B84E30E94E11B85EE0E94E11B90
:100E500086EE0E94E11B88E00E943F1B88E00E9412
:100E6000E11B80915302909154024897D9F48091EC
:100E70005502909156020F97A9F4809157029091D4
:100E80005802892B79F48091590290915A02892B4A
:100E900049F480915B0290915C02892B19F481E006
:100EA0000E94471680915302909154024897D9F4BA
:100EB00080915502909156024A97A9F48091570269
:100EC00090915802892B79F48091590290915A029D
:100ED000892B49F480915B0290915C02892B19F473
:100EE00084E00E94471680915302909154024697E5
:100EF00009F064C08091550290915602469709F01E
:100F00005DC08091570290915802892B09F056C01C
:100F10008091590290915A02892B09F04FC080911B
:100F20005B0290915C02892B09F048C00E944B162D
:100F30008FEA90E00E948C160E94751682EE0E9445
:100F40003F1B80EE0E943F1B8DE20E943F1B8DE203
:100F50000E94E11B80EE0E94E11B82EE0E94E11BD9
:100F600085EE0E943F1B85E20E943F1B85E20E94A6
:100F7000E11B85EE0E94E11B0E944B1684EC90E37E
:100F80000E948C160E94751685EE0E943F1B86E219
:100F90000E943F1B86E20E94E11B84E20E943F1BED
:100FA00084E20E94E11B85EE0E94E11B0E944B1629
:100FB0008FEA90E00E948C160E9475168091530271
:100FC00090915402469709F049C080915502909142
:100FD0005602099709F042C0809157029091580239
:100FE000892BE1F58091590290915A02892BB1F534
:100FF00080915B0290915C02892B81F50E944B16D7
:1010000088EF91E50E948C160E94751685EE0E946D
:101010003F1B85E20E943F1B85E20E94E11B85EE9B
:101020000E94E11B0E944B1684EC90E30E948C16F8
:101030000E94751685EE0E943F1B86E20E943F1BB0
:1010400086E20E94E11B85EE0E94E11B0E944B1686
:1010500088EF91E50E948C160E94751680915302CC
:1010600090915402469701F5809155029091560255
:101070000F97D1F48091570290915802892BA1F4D7
:101080008091590290915A02892B71F480915B02F0
:1010900090915C02892B41F40E944B168BEB93E0FC
:1010A0000E948C160C9475160895FC01613091F025
:1010B00028F0623039F16330C9F031C0408151818C
:1010C0006281738184810E947305882341F186EBDC
:1010D00091E00895408151816281738184810E94F1
:1010E00073058823E1F08DEA91E0089540815181F4
:1010F0006281738184810E947305882381F080EA74
:1011000091E00895408151816281738184810E94C0
:101110007305882321F080E491E00E94200C80E098
:1011200090E00895FF920F931F93CF93DF93D82FF2
:10113000C92F0E947925F82E0E948F25082F0E9422
:10114000A525182FC4FD02C0CF7102C0C295C07F73
:1011500082E60E94822582E60E94982582E60E940D
:10116000AE258C2F82760E947C258D2F0E943F1BFE
:101170008D2F0E94E11B8F2D0E948925802F0E94B8
:101180009F25812F0E94B525DF91CF911F910F914F
:10119000FF900C94D625CF92DF92FF920F931F936E
:1011A000CF93DF936C01F62E072FC42F152F0E94CB
:1011B0007925D82FF6018281882399F00E94BB25DA
:1011C000882329F00E94BB25D82B0E94CC25D272FF
:1011D00019F48F2D902F02C08C2F912F81110E9416
:1011E000920880E0DF91CF911F910F91FF90DF90E7
:1011F000CF900895CF92DF92EF92FF92CF93DF933B
:101200006B017C0160933B0370933C0380933D032F
:1012100090933E030E940211C82F0E940511D82FFF
:10122000C701B6010E94392690E0FC013297E730F1
:10123000F10588F4EA5AFF4F40E00C949B3160E0DE
:1012400001C060E88FEF0E942F110AC06FEFFACF44
:101250006FEF80E0F8CF48EC6D2F8C2F0E942A12A0
:10126000C701B601DF91CF91FF90EF90DF90CF9053
:1012700008952091010130910201820F931F9093F4
:101280000201809301010895209101013091020132
:10129000281B390B30930201209301010895CF934D
:1012A000DF93EC010E943628909341028093400224
:1012B000D0933F02C0933E02DF91CF910895809179
:1012C0003E0290913F02892B09F445C08091400273
:1012D000909141020E944228209101013091020127
:1012E0008217930770F40E947925827219F081EEBB
:1012F0000E94E11B80913E020E943F1B80913E02B2
:1013000020C080913E0290913F028733910541F0C9
:101310008333924051F483E30E943F1B83E311C067
:1013200086E30E943F1B86E30CC081EE0E943F1BB8
:1013300080913E020E943F1B80913E020E94E11B71
:1013400081EE0E94E11B1092410210924002109225
:101350003F0210923E020895109200010C945F0922
:1013600080910001882321F0109200010C945F0904
:1013700081E0809300010895CF93FB01C281CC23CB
:10138000C9F1883FFBE59F07D1F058F487339105F9
:1013900019F1873F9B4559F585E090E00E94390996
:1013A00012C08B3FFBE59F0781F08C3F2BE5920736
:1013B00081F08A3F9B45D9F40E94B00904C085E0C2
:1013C00090E00E944409C0E018C081E080930001D1
:1013D000FACF0E94AC09F7CF0E945F09809100010B
:1013E000882359F087E390E00E944F09ECCF0E94D8
:1013F0005F0903C00E945F09C1E08C2FCF9108955F
:101400009C01CB012733310511F158F42433310508
:1014100019F12533310559F5FB01628185E390E02F
:1014200024C0233342E0340761F02433E2E03E0776
:10143000C1F028333105D9F441E350E068E370E0AE
:1014400004C043E350E063E372E00C94CB0846E34E
:1014500050E067E370E0F9CFFB01628184E390E044
:1014600004C0FB01628184E392E00C94990581E061
:1014700008950F931F93CF93DF93EC018B01FB0132
:10148000408151816281738184810E947305882328
:1014900031F1C115F1E5DF0709F445C058F4C03159
:1014A000E0E5DE0709F43FC0A0F0C251D045279720
:1014B00080F439C0C23081E5D80758F0C930E1E581
:1014C000DE0788F1C13FDB4521F44FEF6FEF80E08D
:1014D00003C040E460E480E40E942F1124C0F801BE
:1014E00080819181228143815481452B31F09F3F3E
:1014F00031F491E08F3F19F403C091E001C090E016
:1015000090FD03C081E0822702C080E090E080FF70
:101510000AC060913B0370913C0380913D03909120
:101520003E030E94FA0881E0DF91CF911F910F9155
:101530000895FF920F931F93CF93DF93EC018B01DC
:101540000E94BC09882359F0B801CE010E94000A0C
:10155000F82EB801CE010E94390A811101C0F12C88
:101560008F2DDF91CF911F910F91FF9008950895D6
:101570009C013A9521153F4138F5DC01AA27B2704C
:10158000AC01442754709C012227387094FF0FC08F
:1015900090FF02C080E101C080E0AB2B09F08062C7
:1015A000452B09F08064232B69F080680BC0892FDC
:1015B0008170AB2B09F08260452B09F08460232BEE
:1015C00009F08860FB0109940895CF93DF93EC0143
:1015D000805E9109089710F0209719F463E57CE18B
:1015E00002C06EE57FE1CE010E94B80A8C2FDF9128
:1015F000CF910C943F1BCF93DF93EC010E94E11B32
:10160000CE01805E9109089710F0209719F46AE5E1
:101610007CE102C065E67FE1CE01DF91CF910C94C1
:10162000B80ACF93DF93EC010E94E50ACE01DF9167
:10163000CF910C94FB0A81E0089508950C941D0B42
:101640001F93CF93DF9300D000D01F92CDB7DEB7AA
:1016500049835A836B8330917B0289819A8131114E
:1016600014C0662359F0222349F00E94D024182F79
:10167000682F89819A810E94792403C00E94A42442
:10168000182F69817A81812F04C00E94D02469813A
:101690007A810F900F900F900F900F90DF91CF9164
:1016A0001F910C94B30CFC01262F40815181628163
:1016B000738184810C94200BCF93DF93EC0160E065
:1016C0000E94530BBE01DF91CF910C941E0BFF9231
:1016D0000F931F93CF93DF93E82FF0E0EB5FF84F6A
:1016E000F490C82FC695C695C695D0E0FE01EB567E
:1016F000F84F0491877010E0082E02C015950795E9
:101700000A94E2F701701127FE01EB57F84FC491DC
:10171000D0E002C0D595C7958A95E2F7C170DD2764
:101720000115110519F081EE0E943F1B209719F059
:1017300086EE0E943F1B8F2D0E94401CCD2B19F07E
:1017400086EE0E94E11B012B41F081EEDF91CF91EB
:101750001F910F91FF900C94E11BDF91CF911F918E
:101760000F91FF900895EF92FF920F931F93CF93E5
:10177000DF938C01F62E8AE0E82EF801849188230D
:1017800009F457C0813009F042C0E8012196FE01FA
:101790008491813031F42196FE0184910E94401C95
:1017A00039C0823039F4E8012296FE0184910E940A
:1017B0003F1B30C0833039F4E8012296FE0184914A
:1017C0000E94E11B27C0843029F5E8012296FE0122
:1017D000249180E090E030E0205331092A30310537
:1017E00060F4E89EA001E99E500D1124C901840F08
:1017F000951F2196FE012491EECF009759F0EFE955
:10180000FFE03197F1F700C000000197F6CF0E948A
:10181000670BE8018E010F5F1F4F8F2D882309F49E
:10182000ACCFEFE9FFE03197F1F700C00000815045
:10183000F5CFDF91CF911F910F91FF90EF90089519
:1018400060E00C94B30B0E948926811102C00E94B3
:101850003C270E94E1150E9431160C9469050C94F6
:101860004F05282F2F7041F0822F90E02A3010F47E
:101870004D9608950697089587E290E0089581E0D7
:1018800008950C943F0CCF93C82F0E9453058C2FC2
:101890000E94410CCF91089508950E94821F0E94DA
:1018A0004C0C2FEF84E39CE0215080409040E1F706
:1018B00000C000000C9477280F931F93CF93DF9301
:1018C000EC0161E00E94530B8C01BE010E945105A6
:1018D000882309F441C0BE01C8010E94E314882393
:1018E000D9F1BE01C8010E94A9168823A9F1BE0141
:1018F000C8010E942919882379F1BE01C8010E94FC
:101900005F17882349F1BE01C8010E94B1178823DF
:1019100019F1BE01C8010E94DC188823E9F0BE015C
:10192000C8010E94A7138823B9F08A81882369F02F
:1019300001158CE5180731F00F3D1C4531F40E946C
:101940003C270AC00E944D0C07C0CE01DF91CF9109
:101950001F910F910C941B0B80E0DF91CF911F9191
:101960000F91089508952BE4829FC0011124FC017A
:101970002FE0729FE00DF11D1124E60FF11DEE0F17
:10198000FF1FE154FE4F859194910895880F991F90
:10199000FC01EB55F84F859194910895CF93DF9317
:1019A0000E94B30C0E94F20DEC01811521E5920713
:1019B000E8F5811540E5940708F0BCC0883E910524
:1019C00000F5803E910508F009C1883A910570F450
:1019D000853A910508F088C08130910509F4FEC070
:1019E00008F4FAC0049708F0F9C0F6C08F3B9105DF
:1019F00008F482C0803C910508F4EEC0805C910937
:101A000088C0C11580E3D80758F4C11520E2D20779
:101A100008F07DC0C11541E0D40708F0DFC0DCC08C
:101A2000C11580E4D80708F082C077C0811526E58B
:101A3000920770F5811545E5940708F0B1C0C1150E
:101A400083E5D80750F4C11522E5D20708F08DC010
:101A5000DC2FCC27C16FD06AC1C0C11544E5D407C3
:101A600008F099C0CE018370992721E030E002C0D0
:101A7000220F331F8A95E2F78C2F8695869540E2D8
:101A8000849FC0011124E901C82BD92BDA68A6C0B4
:101A9000C1158AE5D80778F4C11529E5D20708F001
:101AA00088C0C11548E5D40708F496C0DC2FCC27C0
:101AB000C06FD06A93C0C1158BE5D80708F48CC0FD
:101AC000C1152CE5D20708F484C0CE0190568115CB
:101AD000904208F081C08D2F8F710E94860EDD2705
:101AE000D0628F71D82B7AC0C55AD0E0CC51DE4F6E
:101AF000C881D0E0D06472C0C85AD0E0CC0FDD1FDE
:101B0000CA54DE4F0990D881C02DD46467C0CE017D
:101B10009F700E94C60CEC0161C0CE019927D3FFD3
:101B200003C0EC01D86C5AC0EC01D06C57C0DF7018
:101B3000D06A54C074E0969587957A95E1F78370E2
:101B40009C2F937021E030E002C0220F331F9A9542
:101B5000E2F73C68382BCF70C695C69580E2C89FE7
:101B6000E0011124C22BD32B39C0CE0183709927F9
:101B700021E030E002C0220F331F8A95E2F78C2F5C
:101B80008695869540E2849FC0011124E901C82B07
:101B9000D92BDC6823C0DC2FCC27C46FD06A1EC0D1
:101BA0000E94860E8F71C82FD0E0DC2FCC27D06228
:101BB00015C08C2F8F700E94860E94E0D695C79525
:101BC0009A95E1F7CF70D0E0DC2FCC27D069C82BF5
:101BD00005C0DD27D06602C0C0E0D0E0CE01DF91B5
:101BE000CF9108958238910569F1B0F48133910560
:101BF00009F46DC048F48932910509F463C08A3252
:101C0000910509F469C008958533910509F455C01B
:101C100089339105B9F00895833E910569F138F44F
:101C2000803E9105B1F0823E910509F10895863E0E
:101C30009105A9F1873E9105B9F1843E910509F01E
:101C400064C023C02091740320FD4FC021FD4DC00E
:101C500008958091740380FD44C08091750380FFD6
:101C600044C08091740384FD42C083EE4DC08091D6
:101C7000740382FF38C0F5CF8091740382FD33C0B6
:101C80008091750380FD31C0ECCF8091750381FF99
:101C900032C08091740384FD2AC087EE35C08091E4
:101CA000740383FF26C0F5CF8091740383FD21C0A8
:101CB0008091750381FD1FC0ECCF8091740385FD79
:101CC0001CC01DC08091740385FD19C016C0809191
:101CD000740386FD16C017C08091740386FD13C07F
:101CE00010C089E311C082EE0FC080EE0DC080E00D
:101CF0000BC086EE09C084EE07C089E205C085E30B
:101D000003C08AE201C081E390E0089590917403DA
:101D100092FF0DC0282F2871283019F4877F846026
:101D200006C0282F2471243011F48B7F886093FF24
:101D30000DC0282F2871283119F4877E846106C0D0
:101D4000282F2471243111F48B7E88612091750332
:101D500020FF0DC0382F3871383019F4877F81602B
:101D600006C0382F3171313011F48E7F886021FF29
:101D70000DC0282F2871283119F4877E816106C093
:101D8000282F2171213111F48E7E886194FD877E88
:101D90000895E82FF0E0EE0FFF1FE75BFC4F808116
:101DA00091810895089580EA8A95F1F70895CF9377
:101DB000DF93A6EFB1E04BEF51E061E070E08D9171
:101DC000E82FE295EF70F0E021A18F70EB0102C0E7
:101DD000CC0FDD1F8A95E2F7CE019C2F90959223C0
:101DE00091A392A1892B82A34A175B0741F7A7EE23
:101DF000B1E046EF51E061E070E08D91E82FE295AF
:101E0000EF70F0E021A18F70EB0102C0CC0FDD1F5D
:101E10008A95E2F7CE019C2F9095922391A392A1EF
:101E2000892B82A34A175B0741F7EFE3F3E0A9E4AC
:101E3000B3E089E493E0119211921D921D928E17E6
:101E40009F07C9F785E00E94B60FDF91CF910C94F0
:101E5000230C6F927F928F929F92AF92BF92CF92FC
:101E6000DF92EF92FF920F931F93CF93DF9386EF52
:101E7000C82E81E0D82E0FE313E099E4A92E93E059
:101E8000B92E712C88248394912CF60181916F01D5
:101E9000C82FC295CF70D0E099A18F70740101C096
:101EA000EE0C8A95EAF7892F8E2989A38AA16E2CD8
:101EB000609486218AA30E94D30EE7EEF1E040E011
:101EC00050E020E030E06191A62FA295AF70B0E025
:101ED00090968C9190E06F7002C0959587956A9569
:101EE000E2F780FD08C0C401042E02C0880F991FCC
:101EF0000A94E2F702C080E090E0282B392B4F5F74
:101F00005F4F4F305105F9F689A1682269A28AA175
:101F1000E82AEAA2F801808191812817390721F087
:101F20003183208381E001C080E0782A0E5F1F4F5B
:101F3000A016B10609F0A9CF272D45E069E473E0AA
:101F40008FE393E00E94B70F0E942F0C872DDF9143
:101F5000CF911F910F91FF90EF90DF90CF90BF90A6
:101F6000AF909F908F907F906F9008950895FF920B
:101F70000F931F93CF93DF93F82E092F162FD72F90
:101F8000C42F222349F081E0809344020E94362826
:101F90009093430280934202809144028823D9F0B7
:101FA00080914202909143020E944228069798F045
:101FB000EF2DF02FA12FBD2F80E090E04C2F50E0AF
:101FC0008417950734F4219131912D933D93019617
:101FD000F7CF10924402DF91CF911F910F91FF90A4
:101FE0000895EF92FF920F931F93CF93DF938B018E
:101FF000682F11110AC0442329F0E82FF0E0E355BF
:10200000F84F6491762F862F75C0212F30E0E82F8E
:10201000F0E0442321F0E355F84FE491F0E046E08E
:10202000049FC0011124CFEFD0E0BE010E945131C6
:102030004BEA4603C001479F900D1124800F911D6C
:10204000800F911D982F990F890FAE01421B530BE2
:102050004E9FD0014F9FB00D5E9FB00D11249B2F5E
:10206000189FA0011124452F55278E01041B150B25
:102070000E9FA0010F9F500D1E9F500D11247E0139
:10208000E81AF108E29E8001E39E100DF29E100D09
:102090001124212F3327C21BD30BCE9F9001CF9F3A
:1020A000300DDE9F300D112462307105A9F048F427
:1020B0006115710569F061307105C9F48B2F752FB9
:1020C0000DC06430710581F058F06630710579F407
:1020D0007E2F8B2F932F0DC0832F7B2F9E2F09C018
:1020E0008E2F7B2F952F05C08E2F732F02C07E2F32
:1020F000852F692FDF91CF911F910F91FF90EF9066
:10210000089541E00E94F10F08950895CF93DF9361
:10211000762FE901682F842F0E94811079836883CC
:102120008A83DF91CF91089580915303282F2695BC
:1021300030E02115310519F48170826005C022312B
:10214000310524F08170826280935303089588E002
:1021500090E00C94D031CF92DF92EF92FF926B011E
:102160007C010E949410B701A60188E090E0FF90E6
:10217000EF90DF90CF900C94EE31E3E5F3E083E055
:10218000808311828FEF82838383148260817181C7
:10219000828193810C94AB108091530380FF02C025
:1021A0008695089580E0089590915703933018F430
:1021B0009F5F90935703882351F060915303709170
:1021C000540380915503909156030C94AB100895DD
:1021D00081E00C94D41090915703992319F09150F9
:1021E00090935703882351F06091530370915403E7
:1021F00080915503909156030C94AB10089581E0A3
:102200000C94EB1080915403089580915503089528
:1022100070E00C94F115609104018091530380FFEC
:102220000AC08091030123E0829FC0011124885AD3
:102230009C4F0C940811809105019091060189171B
:1022400080F7E82FF0E09F01220F331FE20FF31F0A
:10225000E85AFC4F1182108212828F5FF0CF90916A
:10226000530390FF16C0909105012091060192172B
:1022700070F4E92FF0E0DF01AA0FBB1FEA0FFB1F8C
:10228000E85AFC4F8183608342839F5FF0CF0C94B8
:102290000B110895AF92BF92CF92DF92EF92FF920F
:1022A0000F931F93CF93DF9300D01F92CDB7DEB76C
:1022B000182FF62E042FE22E8091530380FF66C064
:1022C000E82FE695AE2FB0E0A550BE4F9C919093BD
:1022D0004C028E7F823061F49E012F5F3F4F812F31
:1022E0000E9486104B8169818A810E942F113CC017
:1022F000923019F41091540337C09830A9F5E85082
:102300008E2F8170D82EE695F0E0E855F84FA59015
:10231000B490C12CBB2460910701C61618F52C2D72
:1023200030E0A29EC001A39E900DB29E900D11249C
:1023300070E00E945131812FD11002C0860F01C080
:10234000861B90910501290F311DA901440F551FCE
:10235000240F351F285A3C4F402F6F2D0E948610A6
:10236000C394D9CF0E940B1110935403F0925503DC
:1023700000935603EE2051F0609153037091540383
:1023800080915503909156030E94AB100F900F90CF
:102390000F90DF91CF911F910F91FF90EF90DF9001
:1023A000CF90BF90AF900895E3E5F3E09181282F9F
:1023B000438162818CE0890F0C944A1181E00C9476
:1023C000D411E3E5F3E09181282F4381628184EF0A
:1023D000890F0C944A1181E00C94E111E3E5F3E0DC
:1023E000628129E1620F08F46FEF282F4381818118
:1023F0000C944A1181E00C94EE11E3E5F3E0628164
:1024000029E1621B08F460E0282F438181810C944C
:102410004A1181E00C94FD11E3E5F3E043812CE0E7
:10242000420F08F44FEF282F628181810C944A11EA
:1024300081E00C940C12E3E5F3E043812CE0421BB5
:1024400008F440E0282F628181810C944A1181E0D8
:102450000C941B1221E00C944A1120E00C944A11B8
:10246000FF920F931F93CF93DF93EC01F12C0FEFAB
:1024700010E060910701F616F0F4809105012F2D10
:1024800030E0280F311DC901880F991F280F391F0F
:10249000285A3C4F70E0C8010E946531962F8C810C
:1024A0004091560360915503F99E800D11240E94BE
:1024B0008610F394DECF0E940B119A818C8190FFDD
:1024C00002C08F5F01C081508C83DF91CF911F913B
:1024D0000F91FF900895E3E5F3E080818E7F808384
:1024E00060817181828193810E94AB1010924D02B4
:1024F0002FEF80E792E0215080409040E1F700C04C
:1025000000000C940B1160915303669570E04BE052
:1025100050E088E091E00E94BB31892B19F481E002
:1025200080934D020E943628909346028093450284
:1025300008959091530390FF35C09170811102C0AE
:10254000926006C0823110F0926202C0880F982B10
:1025500090935303662351F0609153037091540399
:1025600080915503909156030E94AB1060915303E4
:10257000669570E04BE050E088E091E00E94BB314E
:10258000892B19F010924D0202C00E94831281E043
:102590008093480240915603609155038091540303
:1025A0000C942D120895682F90915303969581E015
:1025B000890F823108F081E00C94991281E00C942B
:1025C000D312682F9091530396958FEF890F09F4DA
:1025D00081E10C94991281E00C94E11261E00C9479
:1025E0009912E3E5F3E080818160808386950C9405
:1025F000EE128091530380FD0C946B120C94F11237
:1026000060E00C94991280914B0281112EC00E94BF
:102610008926811104C00E943C270E94BD100E949F
:10262000A7106093530370935403809355039093C2
:1026300056036E7F61F40E94BD100E94A710609344
:1026400053037093540380935503909356030E9451
:10265000941010924D028091530380FF03C0869521
:102660000E94001381E080934B0208950F931F9303
:10267000CF93DF9380914D02882309F448C0809165
:102680004C02E0915303E695E81BE0934702823049
:1026900051F4E695F0E0EB55F84FE491CE2FD0E001
:1026A00000E312E104C0C0EDD7E005E810E180913D
:1026B0004802882389F0109248020E9436289E0121
:1026C00020953095820F931F909346028093450288
:1026D00010924A021092490280914502909146025E
:1026E0000E9442288C179D0790F0E0914502F091DE
:1026F0004602CE0FDF1FD0934602C093450285E409
:1027000092E0F801DF91CF911F910F910994DF9131
:10271000CF911F910F910895882311F0FA0101C004
:10272000FB010994CF93DF93C82FD62F0E94CC10C2
:102730008C1740F00E94CC108D1720F4DF91CF91C0
:102740000C94DE128C2FDF91CF910C94EE120F932C
:102750001F93CF93FB01C281CC2309F452C08C019B
:102760000E9479258272F801E35CFC45E431F105B1
:1027700008F04AC0E35AFF4F0C949B310E94F912B3
:1027800042C04BEE52E16EED72E12CC04EED52E1D3
:102790006BEE72E127C04BEE51E16EED71E122C0AC
:1027A0004EED51E16BEE71E11DC049E052E16AEF7F
:1027B00071E118C04AEF51E169E072E113C047E2EC
:1027C00052E168E172E10EC048E152E167E272E174
:1027D00009C04FEF50E168EE70E104C048EE50E1EF
:1027E0006FEF70E10E948C130EC081E00E94EE1228
:1027F0000AC067E082E002C061E188E00E949213B3
:1028000002C0C1E001C0C0E08C2FCF911F910F9199
:1028100008950E948926811102C00E943C270E94CF
:10282000C42680936A03282F26952695269530E0A6
:102830002730310524F08770806380936A0380918C
:102840006A0380FF04C086958695869501C080E066
:102850000C94691520916A03822F8695869586953A
:10286000482F50E04630510554F48F5F982F990F50
:10287000990F990F822F8770892B80936A0380911B
:102880006A03816080936A030E94C82680916A036C
:102890008695869586950C94691580916A03982F84
:1028A000969596959695A1F0915E990F990F990F2F
:1028B0008770892B80936A03887F91E009F490E008
:1028C00080916A0390FB80F980936A030E94C82676
:1028D00080916A038695869586950C9469158091FA
:1028E0006A0380FD13C0816080936A03813019F40C
:1028F00089E080936A0380916A030E94C8268091D0
:102900006A038695869586950C946915089580913D
:102910006A0380FF08C08E7F80936A030E94C826E6
:1029200080E00C946915089580916A0380FD0C94F1
:1029300087140C946F1490916A03892F869586955D
:1029400086958F5F8F719770873038F4880F880F66
:10295000880F892B80936A0302C090936A03809149
:102960006A03887F91E009F490E080916A0390FB0C
:1029700080F980936A030E94C82680916A03869535
:10298000869586950C946915873008F086E09091BD
:102990006A039770282F220F220F220F922B9093F9
:1029A0006A03987F21E009F420E090916A0320FBFC
:1029B00090F990936A030C9469150E94C414809155
:1029C0006A030C94C8269C01FB018281882349F18B
:1029D0002E3BFCE53F07C9F040F42C3BECE53E07FD
:1029E00069F02D3B3C4561F00895203C9CE539079A
:1029F00091F070F0213C3C4589F0089586E001C0DB
:102A000080E00E94DD1480E008950E944D14FBCF09
:102A10000E942A14F8CF0E949414F5CF0E949B14B0
:102A2000F2CF81E00895859A8D9A08958D98089542
:102A30008D9A08951F920F920FB60F9211242F9323
:102A40003F934F935F936F937F938F939F93AF9336
:102A5000BF93EF93FF930E941815FF91EF91BF91E1
:102A6000AF919F918F917F916F915F914F913F9126
:102A70002F910F900FBE0F901F9018951F920F92DD
:102A80000FB60F9211242F933F934F935F936F9341
:102A90007F938F939F93AF93BF93EF93FF93809117
:102AA0008800909189008130914010F00E941615A5
:102AB000FF91EF91BF91AF919F918F917F916F9116
:102AC0005F914F913F912F910F900FBE0F901F90EC
:102AD0001895CF92DF92EF92FF92CF93C82F873055
:102AE000A8F4811114C08091880090918900892BED
:102AF00051F080916F008D7F80936F0080916F0007
:102B00008E7F80936F000E94181511C0C6E08091DF
:102B1000880090918900892B51F480916F00826028
:102B200080936F0080916F00816080936F002C2FE5
:102B300030E0AFEFBFEF0E94A13126E030E040E08F
:102B400050E00E947931C9012C3764E1360728F43E
:102B500069E070E00E94513129C0DA01C9018A5050
:102B6000974DAF4FBF4F6627782F892F9A2F25EFAC
:102B700038E241E050E00E94793169017A01CA01EE
:102B8000B9010E9441319B01AC01C701B6010E940D
:102B90004131BB27A92F982F872F009721E0A2074B
:102BA000B10511F0BC0102C06FEF7FEF7093890097
:102BB00060938800CF91FF90EF90DF90CF900895C1
:102BC00008950E94131582E08093800089E180932C
:102BD00081008FEF9FEF90938700809386000C9485
:102BE0000914869A21B32F7B31B330644FB7F89420
:102BF000FC01CB01880F991F680F791F6E0F7F1F93
:102C0000E617F70789F0819198E031BB000000C01A
:102C100087FF21BB880F000000C000C000C021BB9F
:102C200000C09A9591F7ECCF4FBF8FE594E00197E4
:102C3000F1F700C000000895CF93DF9397FF0DC018
:102C4000FB012281222349F0EC010E944B16CE01A8
:102C50009F770E948C160E94751681E0DF91CF91BC
:102C600008958CE090E00E94C83190E0A0E0B0E0D0
:102C700080936B0390936C03A0936D03B0936E03EA
:102C8000089560916B038CE090E00C94DC318093AC
:102C90006B030C9441160E94792580936F030E9468
:102CA0008C2580916B03813071F048F0823081F087
:102CB0008430A1F486EE0E94401C88E10DC082EEB3
:102CC0000E943F1B0BC088E193E00E94110B06C0DD
:102CD00082EE0E943F1B87E50E94401C8FE39CE927
:102CE0000197F1F700C00000089580916B038130D7
:102CF00039F040F0823031F0843051F488E206C07F
:102D00008CE204C082EE0E94E11B02C00E94401CC3
:102D100080916F030C9489250F931F93CF93DF93BA
:102D20008C01CCE0D0E0C8010C2E02C096958795AE
:102D30000A94E2F78F700E94310C0E94401C249785
:102D4000CC3F8FEFD80779F7DF91CF911F910F918B
:102D500008950F931F93CF93DF93EC018B01FB0139
:102D60008281882361F00E947925CE01825E9C4594
:102D70008530910520F480936B030E944116B801C1
:102D8000CE01DF91CF911F910F910C941C16AF9241
:102D9000BF92CF92DF92EF92FF920F931F93CF9348
:102DA000DF937C015B01C42FD22FFC018281882339
:102DB000F9F0409350020E94362890934F0280937E
:102DC0004E0280E28C0F883008F06EC0C77081E040
:102DD00001C0880FCA95EAF7DF91CF911F910F913B
:102DE000FF90EF90DF90CF90BF90AF900C94531C6A
:102DF00080915002481335C080914E0290914F024D
:102E00000E9442286C01B701C5010E943B22C816EE
:102E1000D90638F510E21D0FCD17B9F080E28C0FFE
:102E2000883040F4C77081E001C0880FCA95EAF786
:102E30000E945A1C183058F581E09D2F977001C0F0
:102E4000880F9A95EAF70E94531C802F0E94401C1D
:102E5000183050F5D77081E001C0880FDA95EAF795
:102E60000AC080E28C0F8830F8F4C77081E001C09E
:102E7000880FCA95EAF7DF91CF911F910F91FF90CC
:102E8000EF90DF90CF90BF90AF900C945A1C802FA2
:102E9000DF91CF911F910F91FF90EF90DF90CF9036
:102EA000BF90AF900C94401CDF91CF911F910F9178
:102EB000FF90EF90DF90CF90BF90AF9008950F9369
:102EC0009C01CB01243F4CE5340731F188F4293DC6
:102ED000FCE53F07D9F02A3D4CE5340779F1283D60
:102EE0003C45A9F506E221EE41EE68ED7CE52BC0FC
:102EF000263FFCE53F07E1F0A8F0273F3C4539F5C8
:102F000007E225EE46EE67EF7CE51DC007E225EE01
:102F100045EE69ED7CE517C006E221EE40EE64EF78
:102F20007CE511C007E225EE44EE65EF7CE50BC0C1
:102F300006E221EE42EE66EF7CE505C008E221E004
:102F400045EE6AED7CE50E94C71680E008C0FC01F2
:102F50008281882319F01092500201C081E00F9104
:102F60000895CF93DF93EC01FB018281882309F45C
:102F70001FC1C230FCE5DF0708F41BC1C6319CE568
:102F8000D90738F09E012B5F3C452930310508F008
:102F900010C10E94A6269093750380937403C031DC
:102FA000ECE5DE0709F4C3C008F041C0C8308CE589
:102FB000D80709F49AC0F0F4C430ECE5DE0709F450
:102FC00087C068F4C2308CE5D80709F477C0C330F5
:102FD000DC4509F0E3C080917403826076C0C6309E
:102FE000ECE5DE0709F46EC008F07BC08091740345
:102FF00088606BC0CC308CE5D80709F485C068F4D4
:10300000CA30ECE5DE0709F474C008F079C00E940C
:10301000821F80917403806858C0CE308CE5D80739
:1030200009F476C008F07FC0809174038BC0CC3F58
:10303000ECE5DE0709F44FC018F5C3318CE5D8077D
:1030400009F47DC078F4C131ECE5DE0709F473C002
:10305000C231DC4509F0A2C00E94821F8091740336
:103060008F7733C0C5318CE5D80709F472C008F4F6
:1030700086C0CB3FDC4509F091C0809175033EC00E
:10308000C115FDE5DF0709F45FC058F4CE3F9CE5AC
:10309000D90709F444C008F43FC0809175038260E9
:1030A0002DC0C230FDE5DF0709F475C008F45DC02E
:1030B000C330DD4509F072C080E06EC080917403BA
:1030C000816003C08091740380618093740366C043
:1030D0008091740311C080917503826080937503A1
:1030E0005DC0809174038062F0CF8091740380642E
:1030F000ECCF8091740388608460E7CF8160EECF6D
:10310000809174038E7FE1CF809174038D7FDDCF3A
:1031100080917403877FD9CF8091750318C0809107
:1031200075038D7FDBCF809174038F7ECECF80912E
:1031300074038F7DCACF809174038F7BC6CF80913B
:103140007403877F8B7FC1CF809175038D7F8E7FC6
:10315000C5CF8091740382FB222720F991E092274A
:1031600090FB82F990FB83F9B0CF80917503982F83
:10317000909591708E7F892B90FB81F9AFCF0E9443
:10318000821F8091740387FB222720F991E0922708
:1031900090FB87F99ACF81E00E943E2780917403CB
:1031A000909175030E94B7260E94821F80E001C0A3
:1031B00081E0DF91CF910895CF93DF9386319C45D5
:1031C00041F5EB010E947925982F8A812091130106
:1031D00030911401882379F09A7A81E009F480E033
:1031E00080935102911102C069E201C065E3C901F7
:1031F0000E94D9270AC080915102811102C069E260
:1032000001C065E3C9010E94E4270E94D62580E041
:1032100001C081E0DF91CF91089508950C940D19BC
:1032200080915F02811114C00E940E1981E0809389
:103230005F020E94362890935E0280935D02109296
:1032400052028AE0E3E5F2E0DF011D928A95E9F798
:1032500008951F93CF93DF93EC01FB0112811111AD
:1032600002C011E033C080915F02882351F1809148
:103270005D0290915E020E944228883E934088F74A
:10328000CE019056811520E2920720F0905E8115C4
:10329000904108F4DD2780915202853060F4E82FD8
:1032A000F0E0EE0FFF1FED5AFD4FD183C0838F5F1B
:1032B0008093520204C010925F020E940D1910E028
:1032C00005C0C731DC4569F60E941019812FDF91D6
:1032D000CF911F91089590936502809364020895A1
:1032E000E0916402F0916502309721F00190F08145
:1032F000E02D099480E00895E0916402F091650268
:10330000309799F020911F01222359F020917403E6
:1033100027FF07C0DC012C9111962C93119725E013
:103320002C930280F381E02D09940895209162028C
:10333000309163022817390771F0909363028093EC
:103340006202E0916402F0916502309721F00680FC
:10335000F781E02D09940895209160023091610277
:103360002817390771F09093610280936002E09111
:103370006402F0916502309721F00084F185E02D20
:103380000994089585B7806885BF85B7806885BF33
:10339000089508950C94C9190C94CA190C94C9196C
:1033A0000C94C9190E94C2190E94CE190C94CC1910
:1033B00081E008950C94D8190E942D280E94D70E00
:1033C0000E94E7280E9409140E9403130C94D0194C
:1033D0007F928F929F92AF92BF92CF92DF92EF92A5
:1033E000FF920F931F93CF93DF93CDB7DEB72A974A
:1033F0000FB6F894DEBF0FBECDBF0E94290F0E940A
:10340000DA19811111C08FEF89838A831B820E9490
:1034100036288160782F9D838C8349815A816B8106
:103420008D810E94E81A4FC047E6A42E42E0B42ED8
:1034300000E010E0702E802F0E94C90E6C01F50193
:10344000819091905F01882699268114910431F42E
:103450000F5F1F4F0530110569F7D5CF8091160317
:1034600081FD0E94D20E80E0EE24E394F12C9401C1
:103470002E213F21232B09F18E837F82CE20DF2056
:1034800081E0CD2809F480E088870E943628816099
:10349000782F9A8789874E815F8168858A850E9407
:1034A000E81A000F111FF801E959FD4F8081918141
:1034B000E826F926F182E08206C08F5FEE0CFF1C41
:1034C0008F30A9F6C5CF0E9436130E94E0150E94E6
:1034D0007019909166028917C9F00E947019809343
:1034E00066022A960FB6F894DEBF0FBECDBFDF91FD
:1034F000CF911F910F91FF90EF90DF90CF90BF90F1
:10350000AF909F908F907F900C94430C2A960FB6AB
:10351000F894DEBF0FBECDBFDF91CF911F910F9109
:10352000FF90EF90DF90CF90BF90AF909F908F90E3
:103530007F900895DC0111962C9111979C91492F51
:1035400050E061E070E0FB0102C0EE0FFF1F9A95B2
:10355000E2F7CF0112966C91129730E0662329F0C2
:1035600060917D02662331F10BC0F901EE0FFF1F60
:10357000EF58FD4F6081718168237923672BD1F06B
:103580006FE0629FF001639FF00D1124E40FF51FBF
:10359000EE0FFF1FE05EFE4F408151814D935C9323
:1035A000220F331FF901EF58FD4F20813181822B0B
:1035B000932B0BC0220F331FF901EF58FD4F80955D
:1035C0009095208131818223932391838083089574
:1035D000CF93DF93CDB7DEB72B970FB6F894DEBF4E
:1035E0000FBECDBF942F4F83252F588769877A87C9
:1035F0008B874A855B85452B31F02F3F31F481E085
:103600009F3F19F403C081E001C080E080FD04C049
:10361000CE0107960E949A1ADE01119686E0FD01FE
:1036200011928A95E9F785E0FE01379601900D9297
:103630008A95E1F749815A816B817C818D819E81D8
:103640000E943E222B960FB6F894DEBF0FBECDBF70
:10365000DF91CF910895FC01808191810E94122514
:1036600092959F70963051F4863F41F080917D0293
:1036700091E0892780937D0290937C020895CF93F7
:10368000882309F49CC0C82F8238C1F40E947019A5
:1036900081FD95C069E380911301909114010E940E
:1036A000D9270E94D6252FEF81EE94E0215080404B
:1036B0009040E1F700C0000069E319C0833801F5CC
:1036C0000E94701980FD7BC063E580911301909189
:1036D00014010E94D9270E94D6252FEF81EE94E095
:1036E000215080409040E1F700C0000063E58091E8
:1036F0001301909114010E94E427CF910C94D625D8
:103700008438C1F40E94701982FD59C067E4809129
:103710001301909114010E94D9270E94D6252FEF02
:1037200081EE94E0215080409040E1F700C000001D
:1037300067E4DDCF8CEF8C0F813AD0F46C2F809151
:103740001301909114010E945927882349F06C2F8E
:1037500080911301909114010E94E4270E94D625C4
:103760006C2F80911301909114010E94D927C5CF2D
:1037700080E28C0F883048F4C77081E001C0880F68
:10378000CA95EAF70E947C25B8CFEBE5EC0FE33051
:1037900040F4F0E0E55CFD4F808190E0CF910C9427
:1037A0009619C85AC73158F4EC2FF0E0EE0FFF1FFE
:1037B000E35FFD4F80819181CF910C94AC19CF9143
:1037C0000895882309F45BC0682F823879F40E9439
:1037D000701981FF54C069E3809113019091140125
:1037E0000E94D9270E94D62569E310C08338B1F41E
:1037F0000E94701980FF43C063E58091130190918E
:1038000014010E94D9270E94D62563E580911301F7
:10381000909114010E94E4270C94D625843879F401
:103820000E94701982FF2BC067E480911301909170
:1038300014010E94D9270E94D62567E4E7CF8CEFB8
:10384000860F813A18F380E2860F883048F467705B
:1038500081E001C0880F6A95EAF70E948225DCCFDB
:103860008BE5860F833020F480E090E00C9496196D
:10387000685A673120F480E090E00C94AC19089508
:10388000CF93C82F0E943F1BC93349F42FEF87EE17
:1038900093E0215080409040E1F700C000008C2F61
:1038A000CF910C94E11B882321F00E947C250C947D
:1038B000D6250895882321F00E9482250C94D625D0
:1038C00008956F927F928F929F92BF92CF92DF92D4
:1038D000EF92FF920F931F93CF93DF936C01C62F4C
:1038E000172FFC01058102950F70D281D1110E9422
:1038F000A2250E9472258823B9F0DD23A9F0812F2B
:10390000807F803441F090E29C0F983068F08036E0
:1039100011F4C63F49F082E00E9420260E947225E1
:1039200091E0B82EB92601C0B12CE12EE2949FE0BF
:10393000E9228E2D90E0FC01EF58FF4F0C949B3153
:10394000012F0F70812F807F11F00295007FDD2302
:1039500099F0002309F4A0C180E28C0F883010F0A8
:10396000C11104C0802F0E947C2503C0802F0E94BB
:1039700092250E94D62590C18C2F0E94E11B002326
:1039800009F43CC280E28C0F883010F0C11104C0F1
:10399000802F0E94822503C0802F0E9498250E94BC
:1039A000D6252CC2912F9F70812F807FF92E8032D7
:1039B00019F0F29480EFF822CC2319F0C130C9F04D
:1039C00022C0DD2371F0002341F0013031F40E9468
:1039D000BB258F290E94C32516C20E94BB258F29B3
:1039E0001DC0002319F0013009F408C20E94CC2543
:1039F00025C0DD2321F0063008F005C20EC00530D9
:103A000008F0FCC11BC0DD2361F0002331F0F6019A
:103A1000858180FF41C18F7085838F2D0E94531C4B
:103A2000F2C1002359F0C93309F045C1FFEF27EE79
:103A300083E0F15020408040E1F73BC18F2D0E9490
:103A40005A1CDCC1812F86958695837019F08130D0
:103A500071F0A3C1DD2331F08C2F912F93700E9460
:103A60009619A5C180E090E00E949619A7C1DD23B8
:103A700031F08C2F912F93700E94AC1998C180E087
:103A800090E00E94AC199AC1812F837009F048C060
:103A9000D11187C12C2F229526952770220F220F36
:103AA0006C2F6F70862F90E0A0E0B0E0022E04C073
:103AB000880F991FAA1FBB1F0A94D2F7C4FF10C01A
:103AC0004FE050E060E070E004C0440F551F661FF7
:103AD000771F2A95D2F7409550956095709503C051
:103AE00040E050E0BA01212F2695269523703A0137
:103AF0004B01682A792A8A2A9B2AC401B301223001
:103B000049F058F4213019F00E948F234AC10E94D5
:103B10007D2347C10E94A12344C10E947B2341C150
:103B2000DD2319F0812F817001C08695882309F467
:103B300038C12C2F229526952770220F220F6C2F2B
:103B40006F70862F90E0A0E0B0E0022E04C0880FD6
:103B5000991FAA1FBB1F0A94D2F7C4FF10C04FE0E1
:103B600050E060E070E004C0440F551F661F771FEF
:103B70002A95D2F7409550956095709503C040E026
:103B800050E0BA01212F2695269523703A014B016A
:103B9000682A792A8A2A9B2AC401B301223049F073
:103BA00058F4213019F00E945424FBC00E94422492
:103BB000F8C00E946624F5C00E94B523F2C0012F10
:103BC0000F70DD2339F0802F0E94DB238C2F0E94A1
:103BD000531CE7C08C2F0E945A1C802F0E94FC238C
:103BE000E0C0C23F69F128F4C03F41F0C13FC1F0DD
:103BF0001EC0C33F79F1C43FB9F119C0DD2341F0C4
:103C0000053008F000C1812F8F710E942124FBC074
:103C1000063008F0F3C0812F8F710E942124EEC07E
:103C2000DD2349F0812F8F710E94DB23ECC0D1117D
:103C300031C0011135C0812F8F710E94FC23DEC07D
:103C4000812F8F71DD2319F00E94FC23DCC00E94BC
:103C5000DB23D4C0DD2329F0812F8F710E94C6237E
:103C6000D2C00E94C123CAC0DD2351F0012F0F71C1
:103C7000802F0E94DB2363E0802F0E940B26C3C0AD
:103C800081E00E942026023008F4B8C082E00E9441
:103C90002026B4C0002331F28C2F0E943F1BB3C0FA
:103CA000C93349F42FEF87EE93E0215080409040D4
:103CB000E1F700C000008C2F0E94E11B9FC0412F44
:103CC0004F706C2FC6010E9455080E94EC226DC0F7
:103CD0008C2F90E0FC01E05FF109E730F10578F509
:103CE000EF57FF4F0C949B31DD2309F450C09091A6
:103CF0007D0281E0892705C0D0937D0248C081E024
:103D00008D2780937D0243C0D11141C081E0F9CF5E
:103D1000D1113DC010927D023AC0DD2319F00E94FE
:103D20004A2535C00E94562532C0DD2329F08091F6
:103D30007C028823E1F229C00530C8F228C08091B6
:103D40007C020023C1F0882341F090917D0281E044
:103D5000892780937D0210927C028C2FDD2319F03D
:103D60000E943F1B14C00E94E11B86E0F6011192E5
:103D70008A95E9F70CC0882351F0D11108C09091C1
:103D80007D0281E0892780937D0210927C02412F81
:103D90004F706C2FC6010E94B20C88EF8E0D8430DC
:103DA00020F40E9470190E94430CDD2339F0107F2B
:103DB000103611F4C63F11F00E946425BB2041F17A
:103DC0000E94462580FD24C0F60112820E944025F3
:103DD0000E94DB23C6010E942E1F0E944025DF9116
:103DE000CF911F910F91FF90EF90DF90CF90BF90F8
:103DF0009F908F907F906F900C94FC2388EF8E0D96
:103E00008430E0F6CECF88EF8E0D843080F6C9CFB7
:103E1000DF91CF911F910F91FF90EF90DF90CF90A6
:103E2000BF909F908F907F906F9008950F931F93F6
:103E3000CF93DF93EC01688179818A810E941D25EF
:103E40008C010E9478240E946923B801CE010E944F
:103E5000611CDF91CF911F910F910895CF93DF9354
:103E6000EC01988189812B813C81232B31F08F3F9C
:103E700031F481E09F3F19F403C081E001C080E08C
:103E800080FD19C0CE010E945C0C81110CC00E9403
:103E90007225882381F08A81882369F082E0DF918E
:103EA000CF910C942026CE010E94161FCE01DF91E7
:103EB000CF910C945C0BDF91CF910895882321F072
:103EC0000E9492250C94D6250895882321F00E9403
:103ED00098250C94D62508950E94A2250E94B82505
:103EE0000E94D62580E090E00E94961980E090E044
:103EF0000C94AC1980911301909114010E94EF274A
:103F00000C946C1F0E948C250C947A1FE92FE2956B
:103F1000EF704E2F50E0FA013297EE30F105B0F419
:103F2000E857FF4F0C949B31803F91F018F4883E86
:103F300068F40EC0843F51F40BC0883E48F0813FC6
:103F400029F406C093FB882780F9089580E008953E
:103F500081E008950E9412250E94861F0895CF9344
:103F6000DF9300D000D01F92CDB7DEB70F900F9037
:103F70000F900F900F90DF91CF910895CF93DF9323
:103F800000D000D000D0CDB7DEB726960FB6F8949B
:103F9000DEBF0FBECDBFDF91CF9108951F93CF93AA
:103FA000DF93C0917E0216E080917F02C81799F0DE
:103FB000D0E01C9FF0011D9FF00D1124E058FD4F33
:103FC0004081518162817381848195810E94BE1FED
:103FD0002196C770E9CFDF91CF911F91089540914D
:103FE000B0025091B1026091B2027091B30280911F
:103FF000B4029091B5020C94BE1F0F931F93CF9300
:10400000DF938091B50282958F7009F05DC0809139
:10401000B202882309F458C080917E0210917F0279
:104020006091B0027091B102C091B302D091B4021C
:1040300091E06F3F09F090E0292F06E0811709F425
:1040400043C0209721F07F3F21F030E003C031E0F2
:1040500001C0322F90E030FD34C0089FF001099F6D
:10406000F00D1124DF01A058BD4F11963C9111971E
:10407000371327C03C91361324C012963C911297F7
:1040800031111FC013964D915C9114974C1B5D0B21
:10409000483C5105B0F48091B5028F7080618093E7
:1040A000B502EB57FD4F80818F708061808380EB7C
:1040B00092E00E942E1FDF91CF911F910F910C94DF
:1040C000CE1F01968770BACFDF91CF911F910F91CC
:1040D00008959F92AF92BF92CF92DF92EF92FF929C
:1040E0000F931F93CF93DF93CDB7DEB761970FB6D2
:1040F000F894DEBF0FBECDBF8C0185E0F801DE0174
:104100001D9601900D928A95E1F7F8014081518149
:10411000E2809091B0026091B1022091B30230919F
:10412000B4022115310531F06F3F31F481E09F3F3A
:1041300019F403C081E001C080E0F82FF1709F2ED8
:1041400080FD46C1F801A380B48080EBC82E82E0D8
:10415000D82EF090B202F501E21BF30BFF2009F418
:10416000DFC08091B502E83CF10508F09BC0282F24
:10417000207F09F052C0561313C0491311C0FE2C02
:10418000E1100EC08F7080618093B5020E94EF1F16
:10419000C6010E942E1F8091B502F801858358C187
:1041A000AB2831F05F3F31F481E04F3F19F403C099
:1041B00081E001C080E080FD03C081E08E2502C067
:1041C00080E090E0F82FF170FF2E80FF1CC08091FE
:1041D0007E0220917F0236E0821709F417C190E039
:1041E000389FF001399FF00D1124E058FD4F618197
:1041F000561306C06081461303C06281E61203C0F5
:1042000001968770E9CFFE2CEE2009F421C1809140
:10421000B50281608093B5025AC0561306C0491397
:1042200004C0E11002C0F8019FC04D875E878D85F4
:104230009E850E94AA1F882379F1EE2069F12091C2
:10424000B502822F82958F7090E0029774F0809172
:10425000B0029091B10298878F831986BB86AA8697
:104260002C87CE0107960E942E1F86E0F801A0EB56
:10427000B2E001900D928A95E1F70E94FD1F0E9425
:10428000EF1F0DC0561729F14D875E878D859E85DE
:104290000E94AA1F81112CC0C8010E942E1FFF245A
:1042A000F394D6C0282F207F69F77A2DB98AA88A7F
:1042B0006E2D89890E94AF1F80EB92E00E942E1F15
:1042C00086E0F60111928A95E9F70E94EF1FF12C22
:1042D000BFC04913D9CFE110D7CFF8018583C801FA
:1042E0000E942E1F86E0F60111928A95E9F7B0C070
:1042F000EE2091F22091B502822F82958F7090E08E
:1043000002970CF4B2CF8091B0029091B1029A83DF
:1043100089831B82BD82AC822E83CE010196A3CFFE
:10432000E83CF10508F047C0FE2CEE2009F4B4CFBC
:10433000561330C049132EC02091B50220FD21C074
:10434000822F82958F70482F50E041155105C9F09A
:10435000F80125834F30510541F08F5F982F9295DA
:10436000907F822F8F70892B8583C8010E942E1F1A
:1043700086E0F801A0EBB2E001900D928A95E1F79A
:1043800042C086E0F801A0EBB2E001900D928A9560
:10439000E1F75EC04D875E878D859E850E94AA1FCE
:1043A000811163CF8091B50281608093B502C8010D
:1043B0000E942E1F4DC07A2DB98AA88A6E2D898938
:1043C0000E94AF1F86E0F60111928A95E9F71BC0A3
:1043D000EE2009F461CF4D875E878D859E850E9412
:1043E000AA1FF82E882309F457CF86E0F801A0EB26
:1043F000B2E001900D928A95E1F780EB92E00E9485
:104400002B1B0E94FD1F0E94EF1F22C04D875E875D
:104410008D859E850E941225292F22952F7022308E
:1044200028F49F7039F0811105C00BC0243028F4A6
:104430009F7049F4805E883020F0C8010E942E1FD2
:104440009F2CF92C05C0F8019581907F99F7F9CF41
:104450008F2D61960FB6F894DEBF0FBECDBFDF91F2
:10446000CF911F910F91FF90EF90DF90CF90BF9071
:10447000AF909F90089588EC90E008951F93CF939C
:10448000DF93CDB7DEB72C970FB6F894DEBF0FBE23
:10449000CDBF4F83588769877A878B879C87CE01EA
:1044A00007960E9469208823D1F09F8188852A85FC
:1044B0003B85232B31F08F3F31F481E09F3F19F48E
:1044C00003C081E001C080E080FD47C04F81588576
:1044D00069857A858B859C850E94BE1F3EC086E0DB
:1044E000FE013796DE01119601900D928A95E1F753
:1044F000FF81E8856A857B856115710531F0EF3FA5
:1045000031F481E0FF3F19F403C081E001C080E095
:1045100080FD23C020917F0230E0C90101968770A1
:10452000992740917E0250E084179507F1F1F983B5
:10453000EA837D836C8396E0929FD001939FB00DB8
:104540001124A058BD4FFE01319601900D929A950D
:10455000E1F780937F020E94CE1F16E080917E02D9
:1045600090917F02891771F1189FC0011124805822
:104570009D4F0E946920882329F1E0917E021E9FB1
:10458000F0011124E058FD4F408151816281738117
:10459000848195810E94BE1F80917E0290E00196E9
:1045A0008770992780937E02D9CF0E94821F109234
:1045B0007F0210927E02E0EBF2E086E0DF011D92C6
:1045C0008A95E9F72C960FB6F894DEBF0FBECDBFE3
:1045D000DF91CF911F910895EF92FF920F931F9358
:1045E000CF93DF938C01892B09F46CC0F12CEE245E
:1045F000E394E8012196F8018491843740F48430F3
:1046000008F051C0813081F0823019F15BC08537EC
:1046100009F444C0A8F19CE7980F903708F052C005
:104620008F770E94E11B41C00E5F1F4FFE018491F6
:1046300090E2980F983050F48770FE2D01C0FF0F64
:104640008A95EAF78F2F0E94A82514C00E943F1B6D
:104650002DC00E5F1F4FFE01849190E2980F98309D
:1046600060F48770FE2D01C0FF0F8A95EAF78F2F47
:104670000E94AE250E94D62519C00E94E11B16C0DB
:104680000E5F1F4FFE01C491CC2381F08FE99FE0A4
:104690000197F1F700C00000C150F6CF0E5F1F4F29
:1046A000FE01F49003C00E943F1B8E018F2D8823D2
:1046B00009F49FCFEFE9FFE03197F1F700C0000068
:1046C0008150F5CFDF91CF911F910F91FF90EF9027
:1046D0000895089508950C946A230C946B230E9406
:1046E0006D236093EC027093ED028093EE02909341
:1046F000EF020C946C1F0C946F230F931F93009187
:10470000EC021091ED022091EE023091EF02602B4D
:10471000712B822B932B1F910F910C946F230F936E
:104720001F930091EC021091ED022091EE02309166
:10473000EF0260237123822393231F910F910C9426
:104740006F230F931F930091EC021091ED022091C3
:10475000EE023091EF0260277127822793271F9185
:104760000F910C946F230C94FA080E94B32360936A
:10477000E8027093E9028093EA029093EB020C94B2
:104780006C1F60E070E0CB010C94B5230F931F9376
:1047900041E050E060E070E08A019B0104C0000F3E
:1047A000111F221F331F8A95D2F7C901B8011F912B
:1047B0000F910C94B5230F931F9341E050E060E0FC
:1047C00070E004C0440F551F661F771F8A95D2F70B
:1047D0008091E8029091E902A091EA02B091EB0287
:1047E0008A019B01082B192B2A2B3B2BC901B801ED
:1047F0001F910F910C94B5230F931F9341E050E04C
:1048000060E070E004C0440F551F661F771F8A9553
:10481000D2F740955095609570958091E8029091FF
:10482000E902A091EA02B091EB028A019B01082300
:1048300019232A233B23C901B8011F910F910C941E
:10484000B5230F931F9341E050E060E070E004C097
:10485000440F551F661F771F8A95D2F78091E80293
:104860009091E902A091EA02B091EB028A019B01CA
:10487000082719272A273B27C901B8011F910F9143
:104880000C94B5230F931F930091E8021091E90255
:104890002091EA023091EB02602B712B822B932B3B
:1048A0001F910F910C94B5230F931F930091E80271
:1048B0001091E9022091EA023091EB02602371230A
:1048C000822393231F910F910C94B5230F931F9371
:1048D0000091E8021091E9022091EA023091EB0286
:1048E00060277127822793271F910F910C94B5237E
:1048F00008952FE0929F800D1124E82FE695E6950C
:10490000E695877051E001C0550F8A95EAF785E07A
:10491000E89FF0011124EA54FD4F20E030E070E000
:104920004081CB01022E02C0969587950A94E2F74A
:104930008170819584278523842781932F5F3F4F42
:104940002530310569F708952FE0929F800D1124DD
:10495000682F669566956695982F977085E0689F95
:10496000B001112440E050E080E0FB01E40FF51FAE
:10497000EA54FD4F208130E0092E02C0369527957C
:104980000A94E2F721703327042E01C0220F0A9403
:10499000EAF7822B4F5F5F4F4530510531F708959D
:1049A000BF92CF92DF92EF92FF920F931F93CF931C
:1049B000DF938C01C090E802D090E902E090EA0217
:1049C000F090EB028091EC029091ED02A091EE024A
:1049D000B091EF02C82AD92AEA2AFB2ACFE1D0E017
:1049E000D701C6010C2E04C0B695A795979587955B
:1049F0000A94D2F780FD04C0219790F7B12C07C02C
:104A0000BC2EB8018C2F0E94CE0C0197A9F38B2DE0
:104A1000DF91CF911F910F91FF90EF90DF90CF909A
:104A2000BF900895CF93DF93EC010E94D024BE0184
:104A30000E94CE0CDF91CF9108951F93CF93DF9307
:104A4000EB0190917B02992321F0CB010E9412256A
:104A500013C0882349F0CB010E94D024182F682F5F
:104A6000CE010E94792404C0CB010E94A424182FF7
:104A7000BE01812F0E94CE0CDF91CF911F9108952E
:104A80008091F10285958595859508958091F10233
:104A90008770089582E08093F00281E080937D0228
:104AA00008951092F00210927D0208958091F00214
:104AB000823019F481E08093F0028091F00283301B
:104AC00011F40C94512508958091F002823019F46C
:104AD00083E08093F0028091F002813011F40C9415
:104AE000512508959091F102977081E009F480E0DA
:104AF000089580911503089590911503892B809353
:104B000015030895809590911503892380931503CB
:104B100008958093150308951092150308958091C8
:104B20001403089590911403892B8093140308951E
:104B300080959091140389238093140308958093A2
:104B40001403089510921403089580911303089597
:104B500090911303892B809313030895809590916E
:104B600013038923809313030895809313030895F7
:104B70001092130308958091F202089508950C9401
:104B8000BE250C94BF259091F202981721F08093D6
:104B9000F2020C94C12508958091F202882329F035
:104BA0001092F20280E00C94C1250895E091130167
:104BB000F0911401809115038083E0911301F0912D
:104BC0001401908180911403892B8083E09113015B
:104BD000F0911401908180911303892B808380913F
:104BE000F202882381F0E0911301F0911401908189
:104BF000892B808380911301909114010E94432797
:104C000081110E94CC2580911301909114010C9484
:104C10007C190C94BE2598E0899F90011124262BC5
:104C20002093F1020E94DB238091F1028595859506
:104C300085950C9409261092F10280E00C940926C7
:104C40002091F102809582238093F102982F977032
:104C500079F430E0482F082E000C550B2417350747
:104C600039F08595859585950E94FC230C941B262B
:104C70000895CF92DF92EF92FF926C01EE24FF2411
:104C8000C114D104E104F10421F0C701B60120E10F
:104C900001C020E0C72ED82EE92EFF24C114D10474
:104CA000E104F10419F0285FC701B6016B017C0132
:104CB00054E0F694E794D794C7945A95D1F7C11469
:104CC000D104E104F10419F02C5FC701B6016B01B6
:104CD0007C0142E0F694E794D794C7944A95D1F7C3
:104CE000C114D104E104F10419F02E5FC701B6012B
:104CF000DC01CB01B695A79597958795892B8A2BD3
:104D00008B2B09F02F5F822FFF90EF90DF90CF90D9
:104D1000089580E090E00E94D63121E08C3E9E4FC5
:104D200009F020E0822F089582E090E00C94C831D1
:104D3000682F82E090E00C94DC3183E090E00C94EA
:104D4000C831682F83E090E00C94DC31CF9384E08D
:104D500090E00E94C831C82F81E290E00E94C831E3
:104D60002C2F30E0A901582BCA01CF910895CF9381
:104D7000C92F682F84E090E00E94DC316C2F81E223
:104D800090E0CF910C94DC3186E090E00C94C83137
:104D9000682F86E090E00C94DC31AB01BC018FE021
:104DA00090E00C94EE31AB01BC0183E190E00C94F7
:104DB000EE3160E070E0CB010C94D32660E070E04F
:104DC000CB010E94CD260C94D9266CEE7EEF80E0BC
:104DD00090E00E94FA3160E082E090E00E94DC31D5
:104DE00060E083E090E00E94DC311092EC021092CF
:104DF000ED021092EE021092EF0260E084E090E08B
:104E00000E94DC3160E081E290E00E94DC3160E0F1
:104E100085E090E00E94DC3160E086E090E00E9456
:104E2000DC316FEF87E090E00E94DC3140E050E041
:104E3000BA0188E090E00E94EE3160E08DE090E001
:104E40000E94DC3140E050E0BA0188E190E00E942D
:104E5000EE3160E087E190E00E94DC3140E050E01C
:104E6000BA018CE190E00E94EE3160E080E290E0D7
:104E70000E94DC310C94DE260C94E526682F8EE02F
:104E800090E00C94DC31FC01329680911F01882364
:104E900031F08091740387FF02C09EE101C096E06B
:104EA00080E0915028F021912223D9F38F5FF9CF30
:104EB0000895662351F120911F012223E9F02091EA
:104EC000740327FF19C0462F4695469546954E31E7
:104ED000E0F4677021E030E002C0220F331F6A95D2
:104EE000E2F7FC01E40FF11D828190E028233923D1
:104EF00081E0232B69F409C0FC01329608962191C8
:104F0000621729F0E817F907D1F780E0089581E0EA
:104F100008959C01FC0132969FEF80E04191461775
:104F200089F09F3F19F4411101C0982F8F5F86309F
:104F3000A9F79F3F39F0F901E90FF11D97FDFA95A7
:104F40006283089508959C012A5F3F4FFC014281CE
:104F5000461301C01282019682179307B9F708958C
:104F6000262F2695269526952E3168F4FC01E20F12
:104F7000F11D677021E030E001C0220F6A95EAF769
:104F80008281282B22830895262F26952695269503
:104F90002E3170F4FC01E20FF11D677021E030E06A
:104FA00001C0220F6A95EAF7209582812823228387
:104FB000089520911F01222329F02091740327FDD9
:104FC0000C94B0270C94892720911F01222329F0EB
:104FD0002091740327FD0C94C4270C94A3272091DF
:104FE0001F01FC013296222331F08091740387FF68
:104FF00002C08EE101C086E0DF011D928A95E9F7CB
:10500000089508950C9401280C940128CF930E94D0
:1050100004280E94290F0E940228C0E08C2F0E94C1
:10502000C90E892B29F4CF5FC530C1F780E001C0DC
:1050300081E0CF9108950C9401280C941B280C94C6
:105040001D280C9401280E94821F0E9409140E94AE
:1050500070190E94430C0C94212882E084BD93E0D7
:1050600095BD9AEF97BD80936E0008952FB7F89481
:105070008091700390917103A0917203B0917303BA
:105080002FBF08959C014FB7F894809170039091C1
:105090007103A0917203B09173034FBF821B930BF6
:1050A000089578941F920F920FB60F9211248F9348
:1050B0009F93AF93BF938091700390917103A091E0
:1050C0007203B09173030196A11DB11D809370030B
:1050D00090937103A0937203B0937303BF91AF9148
:1050E0009F918F910F900FBE0F901F90189581E0A8
:1050F0008093E00080E28093D8001092C9008FE195
:105100009EE40197F1F700C0000087E090EBDC011E
:105110008093830390938403A0938503B0938603C5
:105120009CE088E10FB6F894A895809360000FBECC
:1051300090936000FFCFAF92BF92CF92DF92EF9239
:10514000FF920F931F93CF93C0E0CC24C394D12C34
:10515000E82EF12C8C2F0E94C90E5C0100E010E0BB
:10516000C601002E02C0880F991F0A94E2F78A2117
:105170009B21892B31F40F5F1F4F0F30110581F7F1
:105180000AC0602F7C2F80E00E94B30CE816F9065D
:1051900091F781E004C0CF5FC530E1F680E0CF91A8
:1051A0001F910F91FF90EF90DF90CF90BF90AF9045
:1051B0000895CF93C82F8CE20E949B28882321F06A
:1051C0008C2FCF910C949B2880E0CF910895CF93A2
:1051D0000E948926811102C00E943C27C5E6C15069
:1051E00049F00E94290F8FE39CE90197F1F700C075
:1051F0000000F5CF89E20E94D92881112AC18AE2F4
:105200000E94D92881110E943C2785E00E94D9285C
:1052100081110E9477280E9494268093160387E0CC
:105220000E94D9288823A9F18BE10E94D9288823DC
:1052300051F08091160381FB222720F991E09227FB
:1052400090FB81F90EC08EE00E94D928882361F07E
:105250008091160382FB222720F991E0922790FB90
:1052600082F98093160315C080E10E94D92890919D
:105270001603882341F093FB222720F981E082273F
:1052800080FB93F904C0892F809580FB90F990935F
:105290001603809116030E9498260E94A6269093DA
:1052A00075038093740380EE0E94D928882341F00F
:1052B00080917403982F909590FB80F980937403EC
:1052C00089E30E94D928882359F08091740381FBD7
:1052D000222720F991E0922790FB81F980937403B3
:1052E00082EE0E94D928882359F08091740382FBB2
:1052F000222720F991E0922790FB82F98093740392
:1053000086EE0E94D928882359F08091740383FB8C
:10531000222720F991E0922790FB83F98093740370
:1053200083EE0E94D928882359F08091740384FB6E
:10533000222720F991E0922790FB84F9809374034F
:1053400085E30E94D928882359F08091740385FB56
:10535000222720F991E0922790FB85F9809374032E
:1053600081E30E94D928882359F08091740386FB39
:10537000222720F991E0922790FB86F9809374030D
:1053800081E10E94D928882359F08091740387FB1A
:10539000222720F991E0922790FB87F980937403EC
:1053A00080917403909175030E94B72687E20E9452
:1053B000D928C82F8EE10E94D9288111C2608FE1BF
:1053C0000E94D9288111C46080E20E94D9288111ED
:1053D000C86081E20E94D9288111C06182E20E94E6
:1053E000D9288111C06283E20E94D9288111C0644A
:1053F00084E20E94D928882311F0C06802C0CC231F
:1054000029F08C2F0E94A1266C2F03C00E949D269C
:10541000682F70E080E090E00E947B236091E802BA
:105420007091E9028091EA029091EB020E94B3230D
:105430008FE00E94D928882319F081E00E943E273E
:1054400085E10E94D928882321F080E0CF910C9437
:105450003E27CF910895E1E9F0E080818860808364
:105460008081816080838FB7F89420ED33E03093A2
:105470009900209398008FBF0895E1E7F0E08081C4
:10548000826080830895E1E7F0E080818D7F8083F2
:1054900008951F920F920FB60F9211242F933F93EE
:1054A0004F935F936F937F938F939F93AF93BF932C
:1054B000EF93FF93809117039091180301969093B7
:1054C000180380931703811103C082E00E94430CEC
:1054D000E0911803E695E695F0E0E355F74FE49187
:1054E000809117038E1303C080E00E94430CFF914C
:1054F000EF91BF91AF919F918F917F916F915F914C
:105500004F913F912F910F900FBE0F901F901895C4
:105510008091390308950895CF93DF9300D01F92AF
:10552000CDB7DEB790917A03943019F589837B83E8
:105530006A8382E08093E9008FEF9091E8008150C8
:1055400095FD06C095ED9A95F1F700008111F5CF14
:105550008091E80085FF0DC040E050E063E070E01E
:10556000CE0101960E94A32C8091E8008E77809353
:10557000E8000F900F900F90DF91CF910895BC013C
:1055800084E00C948C2ABC0183E00C948C2ACF9389
:10559000DF9320911F01222339F02091740327FF0C
:1055A00003C060E222E002C068E021E02093E9004D
:1055B0002FEF3091E800215035FD06C035ED3A95CA
:1055C000F1F700002111F5CF2091E80025FF1DC063
:1055D000EC0180911F01811105C040E050E068E0BE
:1055E00070E003C070E040E050E0CE010E94A32CC8
:1055F0008091E8008E778093E80080E2FE01A9E1C7
:10560000B3E001900D928A95E1F7DF91CF91089573
:1056100080917903811109C00E94342E0E94912E3D
:105620008091E20084608093E200089510927903F3
:10563000089508950C943D2A0E9423280E94432A2D
:105640000E9470190C94430C42E061EC81E00E94CE
:10565000AD2D42E261EC82E00C94AD2D80917C0393
:10566000833009F460C030F4813071F0823009F485
:1056700099C008958A3009F485C08B3009F46BC055
:10568000893009F0A7C020C080917B03813A09F0DE
:10569000A1C08091E800877F8093E80080917F031C
:1056A00090918003892B21F460E289E193E003C0AB
:1056B00060E080E090E070E00E94EE2C8091E800D5
:1056C0008B778093E800089580917B03813209F005
:1056D00081C080917F0390918003029708F07AC087
:1056E0008091E800877F8093E8008091E80082FD48
:1056F00005C080917A038111F8CF6CC02091F3002E
:105700008091F20090E0922B029729F48091F100B1
:105710008B7F813021F48091F10080933903809157
:10572000E8008B7753C080917B03813A09F052C027
:1057300080917F0390918003892B09F04BC0809169
:10574000E800877F8093E8008091E80080FFFCCF2D
:1057500080911F0136C080917B038132D9F5809101
:105760007F0390918003892BA9F58091E800877FC2
:105770008093E8000E94E22D80917D0380931F01B9
:105780000C94821F80917B03813221F58091E80087
:10579000877F8093E8000E94E22D80917E038093B2
:1057A0003A03089580917B03813AA1F48091E80047
:1057B000877F8093E8008091E80080FFFCCF809194
:1057C0003A038093F1008091E8008E778093E8009F
:1057D0000C94E22D089584B7877F84BF0FB6F894A8
:1057E000A8958091600088618093600010926000AD
:1057F0000FBE90E080E80FB6F8948093610090931C
:1058000061000FBE0E94D2190E94342E0E94912E78
:105810008091E20084608093E20078940E942631B7
:105820000E94DC1985E191E00E946B190E942B2AED
:1058300080917A03853069F40E941F288091780353
:105840008823B1F30E940628882391F30E948D2CAF
:10585000EFCF0E94E819ECCF0C942E2C292F332780
:1058600023303105C9F060F42130310581F0223058
:10587000310509F04AC08BE390E021E139E049C0ED
:105880002132310511F12232310579F13EC082E138
:1058900090E02CE439E03DC099278130910561F01A
:1058A00040F08230910559F0039779F5EDEEF8E07C
:1058B00008C0EDE0F9E005C0EFEFF8E002C0E3EF6B
:1058C000F8E0849190E09F0124C06115710541F0DA
:1058D00061307105D1F489E090E02CE339E019C022
:1058E00089E090E023E239E014C06115710541F0D0
:1058F0006130710551F48DE690E02EE539E009C084
:1059000080E490E02BEC39E004C080E090E020E0FF
:1059100030E0FA0131832083089580E189BD82E17E
:1059200089BD09B400FEFDCF8091D8008F7D8093A2
:10593000D8008091E00082608093E0008091E000D8
:1059400081FDFCCF0895CF92DF92EF92FF920F93EB
:105950001F93CF93DF93EC018B017A010E94012EFC
:10596000811133C0E114F10439F0F7018081918194
:10597000081B190BC80FD91FC12CD12C01151105FB
:1059800019F18091E80085FD16C08091E8008E77BE
:105990008093E800E114F10449F0F70180819181DE
:1059A000C80ED91ED182C08285E00FC00E94012E90
:1059B000882321F30AC089918093F10001501109D5
:1059C000FFEFCF1ADF0ADACF80E0DF91CF911F918E
:1059D0000F91FF90EF90DF90CF9008952091810379
:1059E000309182032617370748F06115710539F4A5
:1059F0002091E8002E772093E80001C0B901FC0156
:105A000020E06115710579F180917A038823F1F125
:105A10008530F1F18091E80083FD3CC08091E80081
:105A200082FD2EC08091E80080FFEBCF2091F30033
:105A30008091F20090E0922B6115710551F0883051
:105A4000910538F421912093F1006150710901967C
:105A5000F3CF21E0089709F020E08091E8008E77ED
:105A60008093E800CECF2111CFCF0AC080917A0376
:105A7000882361F0853061F08091E80083FD0AC0E1
:105A80008091E80082FFF2CF80E0089582E00895DF
:105A900083E0089581E0089520918103309182038D
:105AA0002617370748F06115710539F42091E80091
:105AB0002E772093E80001C0B901FC0120E06115B8
:105AC000710591F180917A03882309F440C08530F3
:105AD00009F43FC08091E80083FD3DC08091E8005B
